{
  "transactions": [
    {
      "hash": "0x22346f3452b2cccd9aba4163857d859a419176a49ce8561342edcdedc51ac5d8",
      "transactionType": "CALL",
      "contractName": null,
      "contractAddress": "0x55f27e57936fa3a3e4117602ee0a07d1068afbf4",
      "function": "deploy(bytes32,bytes,bytes)",
      "arguments": [
        "0xdd63182735dd4da32232475af1120661b5246d0b245ed36b6c21749b4d756e2b",
        "0x608060405234801561001057600080fd5b506040516106b23803806106b283398101604081905261002f91610101565b826001600160a01b03811661005e57604051631e4fbdf760e01b81526000600482015260240160405180910390fd5b61006781610095565b50600180546001600160a01b0319166001600160a01b03959095169490941790935560035550600255610144565b600080546001600160a01b038381166001600160a01b0319831681178455604051919092169283917f8be0079c531659141344cd1fd0a4f28419497f9722a3daafe3b4186f6b6457e09190a35050565b80516001600160a01b03811681146100fc57600080fd5b919050565b6000806000806080858703121561011757600080fd5b610120856100e5565b935061012e602086016100e5565b6040860151606090960151949790965092505050565b61055f806101536000396000f3fe6080604052600436106100a05760003560e01c80636a967491116100645780636a96749114610178578063715018a61461018e5780638da5cb5b146101a35780639e281a98146101c1578063f2fde38b146101e1578063f591c32714610201576100af565b806307b18bde146100b75780633013ce29146100d75780633ebe0b5d14610114578063656734ed146101385780636a326ab114610158576100af565b366100af576100ad610221565b005b6100ad610221565b3480156100c357600080fd5b506100ad6100d23660046104c4565b610263565b3480156100e357600080fd5b506001546100f7906001600160a01b031681565b6040516001600160a01b0390911681526020015b60405180910390f35b34801561012057600080fd5b5061012a60025481565b60405190815260200161010b565b34801561014457600080fd5b506100ad6101533660046104ee565b6102a6565b34801561016457600080fd5b506100ad610173366004610507565b6102b3565b34801561018457600080fd5b5061012a60035481565b34801561019a57600080fd5b506100ad6102dd565b3480156101af57600080fd5b506000546001600160a01b03166100f7565b3480156101cd57600080fd5b506100ad6101dc3660046104c4565b6102ef565b3480156101ed57600080fd5b506100ad6101fc366004610507565b610312565b34801561020d57600080fd5b506100ad61021c3660046104ee565b610355565b60025434101561024457604051637bf261fb60e01b815260040160405180910390fd5b600354600154610261916001600160a01b03909116903390610362565b565b61026b6103b4565b6040516001600160a01b0383169082156108fc029083906000818181858888f193505050501580156102a1573d6000803e3d6000fd5b505050565b6102ae6103b4565b600355565b6102bb6103b4565b600180546001600160a01b0319166001600160a01b0392909216919091179055565b6102e56103b4565b61026160006103e1565b6102f76103b4565b60015461030e906001600160a01b03168383610362565b5050565b61031a6103b4565b6001600160a01b03811661034957604051631e4fbdf760e01b8152600060048201526024015b60405180910390fd5b610352816103e1565b50565b61035d6103b4565b600255565b604080516001600160a01b038416602482015260448082018490528251808303909101815260649091019091526020810180516001600160e01b031663a9059cbb60e01b1790526102a1908490610431565b6000546001600160a01b031633146102615760405163118cdaa760e01b8152336004820152602401610340565b600080546001600160a01b038381166001600160a01b0319831681178455604051919092169283917f8be0079c531659141344cd1fd0a4f28419497f9722a3daafe3b4186f6b6457e09190a35050565b600080602060008451602086016000885af180610454576040513d6000823e3d81fd5b50506000513d9150811561046c578060011415610479565b6001600160a01b0384163b155b156104a257604051635274afe760e01b81526001600160a01b0385166004820152602401610340565b50505050565b80356001600160a01b03811681146104bf57600080fd5b919050565b600080604083850312156104d757600080fd5b6104e0836104a8565b946020939093013593505050565b60006020828403121561050057600080fd5b5035919050565b60006020828403121561051957600080fd5b610522826104a8565b939250505056fea2646970667358221220daef7f17089b7028049e91e6a7bc3f1cd727ec27a43824ea80b43e17e03c1e7764736f6c634300081c0033",
        "0x00000000000000000000000029e5a1d6ae39cb1e2a3960957edb157c1db600320000000000000000000000002ea5366bd12e6bfa44ef125d93f80e1d77d5b4920000000000000000000000000000000000000000000000008ac7230489e80000000000000000000000000000000000000000000000000000002386f26fc10000"
      ],
      "transaction": {
        "from": "0x7add442b34ebba35b0606bfc4351f33b9781cb31",
        "to": "0x55f27e57936fa3a3e4117602ee0a07d1068afbf4",
        "gas": "0x99338",
        "value": "0x0",
        "input": "0x19cdeff1dd63182735dd4da32232475af1120661b5246d0b245ed36b6c21749b4d756e2b0000000000000000000000000000000000000000000000000000000000000060000000000000000000000000000000000000000000000000000000000000074000000000000000000000000000000000000000000000000000000000000006b2608060405234801561001057600080fd5b506040516106b23803806106b283398101604081905261002f91610101565b826001600160a01b03811661005e57604051631e4fbdf760e01b81526000600482015260240160405180910390fd5b61006781610095565b50600180546001600160a01b0319166001600160a01b03959095169490941790935560035550600255610144565b600080546001600160a01b038381166001600160a01b0319831681178455604051919092169283917f8be0079c531659141344cd1fd0a4f28419497f9722a3daafe3b4186f6b6457e09190a35050565b80516001600160a01b03811681146100fc57600080fd5b919050565b6000806000806080858703121561011757600080fd5b610120856100e5565b935061012e602086016100e5565b6040860151606090960151949790965092505050565b61055f806101536000396000f3fe6080604052600436106100a05760003560e01c80636a967491116100645780636a96749114610178578063715018a61461018e5780638da5cb5b146101a35780639e281a98146101c1578063f2fde38b146101e1578063f591c32714610201576100af565b806307b18bde146100b75780633013ce29146100d75780633ebe0b5d14610114578063656734ed146101385780636a326ab114610158576100af565b366100af576100ad610221565b005b6100ad610221565b3480156100c357600080fd5b506100ad6100d23660046104c4565b610263565b3480156100e357600080fd5b506001546100f7906001600160a01b031681565b6040516001600160a01b0390911681526020015b60405180910390f35b34801561012057600080fd5b5061012a60025481565b60405190815260200161010b565b34801561014457600080fd5b506100ad6101533660046104ee565b6102a6565b34801561016457600080fd5b506100ad610173366004610507565b6102b3565b34801561018457600080fd5b5061012a60035481565b34801561019a57600080fd5b506100ad6102dd565b3480156101af57600080fd5b506000546001600160a01b03166100f7565b3480156101cd57600080fd5b506100ad6101dc3660046104c4565b6102ef565b3480156101ed57600080fd5b506100ad6101fc366004610507565b610312565b34801561020d57600080fd5b506100ad61021c3660046104ee565b610355565b60025434101561024457604051637bf261fb60e01b815260040160405180910390fd5b600354600154610261916001600160a01b03909116903390610362565b565b61026b6103b4565b6040516001600160a01b0383169082156108fc029083906000818181858888f193505050501580156102a1573d6000803e3d6000fd5b505050565b6102ae6103b4565b600355565b6102bb6103b4565b600180546001600160a01b0319166001600160a01b0392909216919091179055565b6102e56103b4565b61026160006103e1565b6102f76103b4565b60015461030e906001600160a01b03168383610362565b5050565b61031a6103b4565b6001600160a01b03811661034957604051631e4fbdf760e01b8152600060048201526024015b60405180910390fd5b610352816103e1565b50565b61035d6103b4565b600255565b604080516001600160a01b038416602482015260448082018490528251808303909101815260649091019091526020810180516001600160e01b031663a9059cbb60e01b1790526102a1908490610431565b6000546001600160a01b031633146102615760405163118cdaa760e01b8152336004820152602401610340565b600080546001600160a01b038381166001600160a01b0319831681178455604051919092169283917f8be0079c531659141344cd1fd0a4f28419497f9722a3daafe3b4186f6b6457e09190a35050565b600080602060008451602086016000885af180610454576040513d6000823e3d81fd5b50506000513d9150811561046c578060011415610479565b6001600160a01b0384163b155b156104a257604051635274afe760e01b81526001600160a01b0385166004820152602401610340565b50505050565b80356001600160a01b03811681146104bf57600080fd5b919050565b600080604083850312156104d757600080fd5b6104e0836104a8565b946020939093013593505050565b60006020828403121561050057600080fd5b5035919050565b60006020828403121561051957600080fd5b610522826104a8565b939250505056fea2646970667358221220daef7f17089b7028049e91e6a7bc3f1cd727ec27a43824ea80b43e17e03c1e7764736f6c634300081c00330000000000000000000000000000000000000000000000000000000000000000000000000000000000000000008000000000000000000000000029e5a1d6ae39cb1e2a3960957edb157c1db600320000000000000000000000002ea5366bd12e6bfa44ef125d93f80e1d77d5b4920000000000000000000000000000000000000000000000008ac7230489e80000000000000000000000000000000000000000000000000000002386f26fc10000",
        "nonce": "0x2",
        "chainId": "0xaa36a7"
      },
      "additionalContracts": [
        {
          "transactionType": "CREATE2",
          "address": "0xb70bb7f3f49ae85b6f6780936ad3b088457437b8",
          "initCode": "0x608060405234801561001057600080fd5b506040516106b23803806106b283398101604081905261002f91610101565b826001600160a01b03811661005e57604051631e4fbdf760e01b81526000600482015260240160405180910390fd5b61006781610095565b50600180546001600160a01b0319166001600160a01b03959095169490941790935560035550600255610144565b600080546001600160a01b038381166001600160a01b0319831681178455604051919092169283917f8be0079c531659141344cd1fd0a4f28419497f9722a3daafe3b4186f6b6457e09190a35050565b80516001600160a01b03811681146100fc57600080fd5b919050565b6000806000806080858703121561011757600080fd5b610120856100e5565b935061012e602086016100e5565b6040860151606090960151949790965092505050565b61055f806101536000396000f3fe6080604052600436106100a05760003560e01c80636a967491116100645780636a96749114610178578063715018a61461018e5780638da5cb5b146101a35780639e281a98146101c1578063f2fde38b146101e1578063f591c32714610201576100af565b806307b18bde146100b75780633013ce29146100d75780633ebe0b5d14610114578063656734ed146101385780636a326ab114610158576100af565b366100af576100ad610221565b005b6100ad610221565b3480156100c357600080fd5b506100ad6100d23660046104c4565b610263565b3480156100e357600080fd5b506001546100f7906001600160a01b031681565b6040516001600160a01b0390911681526020015b60405180910390f35b34801561012057600080fd5b5061012a60025481565b60405190815260200161010b565b34801561014457600080fd5b506100ad6101533660046104ee565b6102a6565b34801561016457600080fd5b506100ad610173366004610507565b6102b3565b34801561018457600080fd5b5061012a60035481565b34801561019a57600080fd5b506100ad6102dd565b3480156101af57600080fd5b506000546001600160a01b03166100f7565b3480156101cd57600080fd5b506100ad6101dc3660046104c4565b6102ef565b3480156101ed57600080fd5b506100ad6101fc366004610507565b610312565b34801561020d57600080fd5b506100ad61021c3660046104ee565b610355565b60025434101561024457604051637bf261fb60e01b815260040160405180910390fd5b600354600154610261916001600160a01b03909116903390610362565b565b61026b6103b4565b6040516001600160a01b0383169082156108fc029083906000818181858888f193505050501580156102a1573d6000803e3d6000fd5b505050565b6102ae6103b4565b600355565b6102bb6103b4565b600180546001600160a01b0319166001600160a01b0392909216919091179055565b6102e56103b4565b61026160006103e1565b6102f76103b4565b60015461030e906001600160a01b03168383610362565b5050565b61031a6103b4565b6001600160a01b03811661034957604051631e4fbdf760e01b8152600060048201526024015b60405180910390fd5b610352816103e1565b50565b61035d6103b4565b600255565b604080516001600160a01b038416602482015260448082018490528251808303909101815260649091019091526020810180516001600160e01b031663a9059cbb60e01b1790526102a1908490610431565b6000546001600160a01b031633146102615760405163118cdaa760e01b8152336004820152602401610340565b600080546001600160a01b038381166001600160a01b0319831681178455604051919092169283917f8be0079c531659141344cd1fd0a4f28419497f9722a3daafe3b4186f6b6457e09190a35050565b600080602060008451602086016000885af180610454576040513d6000823e3d81fd5b50506000513d9150811561046c578060011415610479565b6001600160a01b0384163b155b156104a257604051635274afe760e01b81526001600160a01b0385166004820152602401610340565b50505050565b80356001600160a01b03811681146104bf57600080fd5b919050565b600080604083850312156104d757600080fd5b6104e0836104a8565b946020939093013593505050565b60006020828403121561050057600080fd5b5035919050565b60006020828403121561051957600080fd5b610522826104a8565b939250505056fea2646970667358221220daef7f17089b7028049e91e6a7bc3f1cd727ec27a43824ea80b43e17e03c1e7764736f6c634300081c003300000000000000000000000029e5a1d6ae39cb1e2a3960957edb157c1db600320000000000000000000000002ea5366bd12e6bfa44ef125d93f80e1d77d5b4920000000000000000000000000000000000000000000000008ac7230489e80000000000000000000000000000000000000000000000000000002386f26fc10000"
        }
      ],
      "isFixedGasLimit": false
    }
  ],
  "receipts": [
    {
      "status": "0x1",
      "cumulativeGasUsed": "0x63f9bb",
      "logs": [
        {
          "address": "0xb70bb7f3f49ae85b6f6780936ad3b088457437b8",
          "topics": [
            "0x8be0079c531659141344cd1fd0a4f28419497f9722a3daafe3b4186f6b6457e0",
            "0x0000000000000000000000000000000000000000000000000000000000000000",
            "0x0000000000000000000000002ea5366bd12e6bfa44ef125d93f80e1d77d5b492"
          ],
          "data": "0x",
          "blockHash": "0x29d8dd184f26ff0a04673df25486c67ae63e37f64035c62f2fdce3cfeceeb8e0",
          "blockNumber": "0x6e0560",
          "transactionHash": "0x22346f3452b2cccd9aba4163857d859a419176a49ce8561342edcdedc51ac5d8",
          "transactionIndex": "0x56",
          "logIndex": "0x5f",
          "removed": false
        }
      ],
      "logsBloom": "0x00000000000000000000040000000000000000000000000000800000000000000000000000000000000000000000000000000000000000000000000000000000000000000000000000000000000000000001000000400000000020000400000000000000020000000000000000000800000000000000000000000000000000400000000000000000000000000000000000000000000000000000000000000000800000000000000000000000000000000000000000000000000000000000000000000000000000000000000000000000000000000000000000000000000020000000000000000000000000080000000000000000000000000000000000000000",
      "type": "0x2",
      "transactionHash": "0x22346f3452b2cccd9aba4163857d859a419176a49ce8561342edcdedc51ac5d8",
      "transactionIndex": "0x56",
      "blockHash": "0x29d8dd184f26ff0a04673df25486c67ae63e37f64035c62f2fdce3cfeceeb8e0",
      "blockNumber": "0x6e0560",
      "gasUsed": "0x6ef18",
      "effectiveGasPrice": "0x21e11f222",
      "from": "0x7add442b34ebba35b0606bfc4351f33b9781cb31",
      "to": "0x55f27e57936fa3a3e4117602ee0a07d1068afbf4",
      "contractAddress": null
    }
  ],
  "libraries": [],
  "pending": [],
  "returns": {},
  "timestamp": 1733324715,
  "chain": 11155111,
  "commit": "67c52e8"
}